{
  "contractName": "SolnSquareVerifier",
  "abi": [
    {
      "inputs": [
        {
          "internalType": "address",
          "name": "verifierAddress",
          "type": "address"
        }
      ],
      "payable": false,
      "stateMutability": "nonpayable",
      "type": "constructor"
    },
    {
      "anonymous": false,
      "inputs": [
        {
          "indexed": true,
          "internalType": "address",
          "name": "owner",
          "type": "address"
        },
        {
          "indexed": true,
          "internalType": "address",
          "name": "approved",
          "type": "address"
        },
        {
          "indexed": true,
          "internalType": "uint256",
          "name": "tokenId",
          "type": "uint256"
        }
      ],
      "name": "Approval",
      "type": "event"
    },
    {
      "anonymous": false,
      "inputs": [
        {
          "indexed": true,
          "internalType": "address",
          "name": "owner",
          "type": "address"
        },
        {
          "indexed": true,
          "internalType": "address",
          "name": "operator",
          "type": "address"
        },
        {
          "indexed": false,
          "internalType": "bool",
          "name": "approved",
          "type": "bool"
        }
      ],
      "name": "ApprovalForAll",
      "type": "event"
    },
    {
      "anonymous": false,
      "inputs": [
        {
          "indexed": false,
          "internalType": "address",
          "name": "caller",
          "type": "address"
        }
      ],
      "name": "Paused",
      "type": "event"
    },
    {
      "anonymous": false,
      "inputs": [
        {
          "indexed": false,
          "internalType": "uint256",
          "name": "index",
          "type": "uint256"
        },
        {
          "indexed": false,
          "internalType": "address",
          "name": "provider",
          "type": "address"
        }
      ],
      "name": "SolutionAdded",
      "type": "event"
    },
    {
      "anonymous": false,
      "inputs": [
        {
          "indexed": true,
          "internalType": "address",
          "name": "from",
          "type": "address"
        },
        {
          "indexed": true,
          "internalType": "address",
          "name": "to",
          "type": "address"
        },
        {
          "indexed": true,
          "internalType": "uint256",
          "name": "tokenId",
          "type": "uint256"
        }
      ],
      "name": "Transfer",
      "type": "event"
    },
    {
      "anonymous": false,
      "inputs": [
        {
          "indexed": false,
          "internalType": "address",
          "name": "caller",
          "type": "address"
        }
      ],
      "name": "Unpaused",
      "type": "event"
    },
    {
      "anonymous": false,
      "inputs": [
        {
          "indexed": false,
          "internalType": "address",
          "name": "newOwner",
          "type": "address"
        }
      ],
      "name": "ownershipTransfered",
      "type": "event"
    },
    {
      "constant": false,
      "inputs": [
        {
          "internalType": "bytes32",
          "name": "_myid",
          "type": "bytes32"
        },
        {
          "internalType": "string",
          "name": "_result",
          "type": "string"
        }
      ],
      "name": "__callback",
      "outputs": [],
      "payable": false,
      "stateMutability": "nonpayable",
      "type": "function"
    },
    {
      "constant": false,
      "inputs": [
        {
          "internalType": "bytes32",
          "name": "_myid",
          "type": "bytes32"
        },
        {
          "internalType": "string",
          "name": "_result",
          "type": "string"
        },
        {
          "internalType": "bytes",
          "name": "_proof",
          "type": "bytes"
        }
      ],
      "name": "__callback",
      "outputs": [],
      "payable": false,
      "stateMutability": "nonpayable",
      "type": "function"
    },
    {
      "constant": false,
      "inputs": [
        {
          "internalType": "address",
          "name": "to",
          "type": "address"
        },
        {
          "internalType": "uint256",
          "name": "tokenId",
          "type": "uint256"
        }
      ],
      "name": "approve",
      "outputs": [],
      "payable": false,
      "stateMutability": "nonpayable",
      "type": "function"
    },
    {
      "constant": true,
      "inputs": [
        {
          "internalType": "address",
          "name": "owner",
          "type": "address"
        }
      ],
      "name": "balanceOf",
      "outputs": [
        {
          "internalType": "uint256",
          "name": "",
          "type": "uint256"
        }
      ],
      "payable": false,
      "stateMutability": "view",
      "type": "function"
    },
    {
      "constant": true,
      "inputs": [
        {
          "internalType": "uint256",
          "name": "tokenId",
          "type": "uint256"
        }
      ],
      "name": "getApproved",
      "outputs": [
        {
          "internalType": "address",
          "name": "",
          "type": "address"
        }
      ],
      "payable": false,
      "stateMutability": "view",
      "type": "function"
    },
    {
      "constant": true,
      "inputs": [
        {
          "internalType": "address",
          "name": "owner",
          "type": "address"
        },
        {
          "internalType": "address",
          "name": "operator",
          "type": "address"
        }
      ],
      "name": "isApprovedForAll",
      "outputs": [
        {
          "internalType": "bool",
          "name": "",
          "type": "bool"
        }
      ],
      "payable": false,
      "stateMutability": "view",
      "type": "function"
    },
    {
      "constant": false,
      "inputs": [
        {
          "internalType": "address",
          "name": "to",
          "type": "address"
        },
        {
          "internalType": "uint256",
          "name": "tokenId",
          "type": "uint256"
        }
      ],
      "name": "mint",
      "outputs": [
        {
          "internalType": "bool",
          "name": "",
          "type": "bool"
        }
      ],
      "payable": false,
      "stateMutability": "nonpayable",
      "type": "function"
    },
    {
      "constant": true,
      "inputs": [],
      "name": "owner",
      "outputs": [
        {
          "internalType": "address",
          "name": "",
          "type": "address"
        }
      ],
      "payable": false,
      "stateMutability": "view",
      "type": "function"
    },
    {
      "constant": true,
      "inputs": [
        {
          "internalType": "uint256",
          "name": "tokenId",
          "type": "uint256"
        }
      ],
      "name": "ownerOf",
      "outputs": [
        {
          "internalType": "address",
          "name": "",
          "type": "address"
        }
      ],
      "payable": false,
      "stateMutability": "view",
      "type": "function"
    },
    {
      "constant": false,
      "inputs": [
        {
          "internalType": "address",
          "name": "from",
          "type": "address"
        },
        {
          "internalType": "address",
          "name": "to",
          "type": "address"
        },
        {
          "internalType": "uint256",
          "name": "tokenId",
          "type": "uint256"
        }
      ],
      "name": "safeTransferFrom",
      "outputs": [],
      "payable": false,
      "stateMutability": "nonpayable",
      "type": "function"
    },
    {
      "constant": false,
      "inputs": [
        {
          "internalType": "address",
          "name": "from",
          "type": "address"
        },
        {
          "internalType": "address",
          "name": "to",
          "type": "address"
        },
        {
          "internalType": "uint256",
          "name": "tokenId",
          "type": "uint256"
        },
        {
          "internalType": "bytes",
          "name": "_data",
          "type": "bytes"
        }
      ],
      "name": "safeTransferFrom",
      "outputs": [],
      "payable": false,
      "stateMutability": "nonpayable",
      "type": "function"
    },
    {
      "constant": false,
      "inputs": [
        {
          "internalType": "address",
          "name": "to",
          "type": "address"
        },
        {
          "internalType": "bool",
          "name": "approved",
          "type": "bool"
        }
      ],
      "name": "setApprovalForAll",
      "outputs": [],
      "payable": false,
      "stateMutability": "nonpayable",
      "type": "function"
    },
    {
      "constant": false,
      "inputs": [
        {
          "internalType": "bool",
          "name": "state",
          "type": "bool"
        }
      ],
      "name": "setState",
      "outputs": [],
      "payable": false,
      "stateMutability": "nonpayable",
      "type": "function"
    },
    {
      "constant": true,
      "inputs": [],
      "name": "solutionCounter",
      "outputs": [
        {
          "internalType": "uint256",
          "name": "",
          "type": "uint256"
        }
      ],
      "payable": false,
      "stateMutability": "view",
      "type": "function"
    },
    {
      "constant": true,
      "inputs": [
        {
          "internalType": "bytes4",
          "name": "interfaceId",
          "type": "bytes4"
        }
      ],
      "name": "supportsInterface",
      "outputs": [
        {
          "internalType": "bool",
          "name": "",
          "type": "bool"
        }
      ],
      "payable": false,
      "stateMutability": "view",
      "type": "function"
    },
    {
      "constant": true,
      "inputs": [
        {
          "internalType": "uint256",
          "name": "index",
          "type": "uint256"
        }
      ],
      "name": "tokenByIndex",
      "outputs": [
        {
          "internalType": "uint256",
          "name": "",
          "type": "uint256"
        }
      ],
      "payable": false,
      "stateMutability": "view",
      "type": "function"
    },
    {
      "constant": true,
      "inputs": [
        {
          "internalType": "address",
          "name": "owner",
          "type": "address"
        },
        {
          "internalType": "uint256",
          "name": "index",
          "type": "uint256"
        }
      ],
      "name": "tokenOfOwnerByIndex",
      "outputs": [
        {
          "internalType": "uint256",
          "name": "",
          "type": "uint256"
        }
      ],
      "payable": false,
      "stateMutability": "view",
      "type": "function"
    },
    {
      "constant": true,
      "inputs": [
        {
          "internalType": "uint256",
          "name": "tokenId",
          "type": "uint256"
        }
      ],
      "name": "tokenURI",
      "outputs": [
        {
          "internalType": "string",
          "name": "",
          "type": "string"
        }
      ],
      "payable": false,
      "stateMutability": "view",
      "type": "function"
    },
    {
      "constant": true,
      "inputs": [],
      "name": "totalSupply",
      "outputs": [
        {
          "internalType": "uint256",
          "name": "",
          "type": "uint256"
        }
      ],
      "payable": false,
      "stateMutability": "view",
      "type": "function"
    },
    {
      "constant": false,
      "inputs": [
        {
          "internalType": "address",
          "name": "from",
          "type": "address"
        },
        {
          "internalType": "address",
          "name": "to",
          "type": "address"
        },
        {
          "internalType": "uint256",
          "name": "tokenId",
          "type": "uint256"
        }
      ],
      "name": "transferFrom",
      "outputs": [],
      "payable": false,
      "stateMutability": "nonpayable",
      "type": "function"
    },
    {
      "constant": false,
      "inputs": [
        {
          "internalType": "address",
          "name": "newOwner",
          "type": "address"
        }
      ],
      "name": "transferOwnership",
      "outputs": [],
      "payable": false,
      "stateMutability": "nonpayable",
      "type": "function"
    },
    {
      "constant": false,
      "inputs": [
        {
          "components": [
            {
              "components": [
                {
                  "internalType": "uint256",
                  "name": "X",
                  "type": "uint256"
                },
                {
                  "internalType": "uint256",
                  "name": "Y",
                  "type": "uint256"
                }
              ],
              "internalType": "struct Pairing.G1Point",
              "name": "a",
              "type": "tuple"
            },
            {
              "components": [
                {
                  "internalType": "uint256[2]",
                  "name": "X",
                  "type": "uint256[2]"
                },
                {
                  "internalType": "uint256[2]",
                  "name": "Y",
                  "type": "uint256[2]"
                }
              ],
              "internalType": "struct Pairing.G2Point",
              "name": "b",
              "type": "tuple"
            },
            {
              "components": [
                {
                  "internalType": "uint256",
                  "name": "X",
                  "type": "uint256"
                },
                {
                  "internalType": "uint256",
                  "name": "Y",
                  "type": "uint256"
                }
              ],
              "internalType": "struct Pairing.G1Point",
              "name": "c",
              "type": "tuple"
            }
          ],
          "internalType": "struct Verifier.Proof",
          "name": "proof",
          "type": "tuple"
        },
        {
          "internalType": "uint256[1]",
          "name": "input",
          "type": "uint256[1]"
        }
      ],
      "name": "addSolution",
      "outputs": [
        {
          "internalType": "bool",
          "name": "",
          "type": "bool"
        }
      ],
      "payable": false,
      "stateMutability": "nonpayable",
      "type": "function"
    },
    {
      "constant": false,
      "inputs": [
        {
          "internalType": "uint256",
          "name": "index",
          "type": "uint256"
        },
        {
          "components": [
            {
              "components": [
                {
                  "internalType": "uint256",
                  "name": "X",
                  "type": "uint256"
                },
                {
                  "internalType": "uint256",
                  "name": "Y",
                  "type": "uint256"
                }
              ],
              "internalType": "struct Pairing.G1Point",
              "name": "a",
              "type": "tuple"
            },
            {
              "components": [
                {
                  "internalType": "uint256[2]",
                  "name": "X",
                  "type": "uint256[2]"
                },
                {
                  "internalType": "uint256[2]",
                  "name": "Y",
                  "type": "uint256[2]"
                }
              ],
              "internalType": "struct Pairing.G2Point",
              "name": "b",
              "type": "tuple"
            },
            {
              "components": [
                {
                  "internalType": "uint256",
                  "name": "X",
                  "type": "uint256"
                },
                {
                  "internalType": "uint256",
                  "name": "Y",
                  "type": "uint256"
                }
              ],
              "internalType": "struct Pairing.G1Point",
              "name": "c",
              "type": "tuple"
            }
          ],
          "internalType": "struct Verifier.Proof",
          "name": "proof",
          "type": "tuple"
        },
        {
          "internalType": "uint256[1]",
          "name": "input",
          "type": "uint256[1]"
        }
      ],
      "name": "verifiedMint",
      "outputs": [],
      "payable": false,
      "stateMutability": "nonpayable",
      "type": "function"
    },
    {
      "constant": true,
      "inputs": [
        {
          "components": [
            {
              "components": [
                {
                  "internalType": "uint256",
                  "name": "X",
                  "type": "uint256"
                },
                {
                  "internalType": "uint256",
                  "name": "Y",
                  "type": "uint256"
                }
              ],
              "internalType": "struct Pairing.G1Point",
              "name": "a",
              "type": "tuple"
            },
            {
              "components": [
                {
                  "internalType": "uint256[2]",
                  "name": "X",
                  "type": "uint256[2]"
                },
                {
                  "internalType": "uint256[2]",
                  "name": "Y",
                  "type": "uint256[2]"
                }
              ],
              "internalType": "struct Pairing.G2Point",
              "name": "b",
              "type": "tuple"
            },
            {
              "components": [
                {
                  "internalType": "uint256",
                  "name": "X",
                  "type": "uint256"
                },
                {
                  "internalType": "uint256",
                  "name": "Y",
                  "type": "uint256"
                }
              ],
              "internalType": "struct Pairing.G1Point",
              "name": "c",
              "type": "tuple"
            }
          ],
          "internalType": "struct Verifier.Proof",
          "name": "proof",
          "type": "tuple"
        },
        {
          "internalType": "uint256[1]",
          "name": "input",
          "type": "uint256[1]"
        }
      ],
      "name": "getSolutionProvider",
      "outputs": [
        {
          "internalType": "address",
          "name": "",
          "type": "address"
        }
      ],
      "payable": false,
      "stateMutability": "view",
      "type": "function"
    }
  ],
  "bytecode": "0x60806040526040518060400160405280601d81526020017f426c6f636b636861696e20546563686e6f6c6f67792053757072656d65000000815250601390805190602001906200005192919062000531565b506040518060400160405280600381526020017f4254530000000000000000000000000000000000000000000000000000000000815250601490805190602001906200009f92919062000531565b506040518060600160405280603f815260200162003a80603f913960159080519060200190620000d192919062000531565b506000601855348015620000e457600080fd5b5060405162003abf38038062003abf83398181016040526200010a9190810190620005f7565b60138054600181600116156101000203166002900480601f016020809104026020016040519081016040528092919081815260200182805460018160011615610100020316600290048015620001a45780601f106200017857610100808354040283529160200191620001a4565b820191906000526020600020905b8154815290600101906020018083116200018657829003601f168201915b505050505060148054600181600116156101000203166002900480601f016020809104026020016040519081016040528092919081815260200182805460018160011615610100020316600290048015620002435780601f10620002175761010080835404028352916020019162000243565b820191906000526020600020905b8154815290600101906020018083116200022557829003601f168201915b505050505060158054600181600116156101000203166002900480601f016020809104026020016040519081016040528092919081815260200182805460018160011615610100020316600290048015620002e25780601f10620002b657610100808354040283529160200191620002e2565b820191906000526020600020905b815481529060010190602001808311620002c457829003601f168201915b5050505050336000806101000a81548173ffffffffffffffffffffffffffffffffffffffff021916908373ffffffffffffffffffffffffffffffffffffffff1602179055507f483c69a8598957738380929072fe06ab60b4ad2b8038421a1bd54126cdbfa9016000809054906101000a900473ffffffffffffffffffffffffffffffffffffffff1660405162000379919062000634565b60405180910390a160008060146101000a81548160ff021916908315150217905550620003b36301ffc9a760e01b6200049160201b60201c565b620003cb6380ac58cd60e01b6200049160201b60201c565b620003e363780e9d6360e01b6200049160201b60201c565b82600f9080519060200190620003fb92919062000531565b5081601090805190602001906200041492919062000531565b5080601190805190602001906200042d92919062000531565b5062000446635b5e139f60e01b6200049160201b60201c565b50505080601660006101000a81548173ffffffffffffffffffffffffffffffffffffffff021916908373ffffffffffffffffffffffffffffffffffffffff160217905550506200069f565b63ffffffff60e01b817bffffffffffffffffffffffffffffffffffffffffffffffffffffffff19161415620004c557600080fd5b6001806000837bffffffffffffffffffffffffffffffffffffffffffffffffffffffff19167bffffffffffffffffffffffffffffffffffffffffffffffffffffffff1916815260200190815260200160002060006101000a81548160ff02191690831515021790555050565b828054600181600116156101000203166002900490600052602060002090601f016020900481019282601f106200057457805160ff1916838001178555620005a5565b82800160010185558215620005a5579182015b82811115620005a457825182559160200191906001019062000587565b5b509050620005b49190620005b8565b5090565b620005dd91905b80821115620005d9576000816000905550600101620005bf565b5090565b90565b600081519050620005f18162000685565b92915050565b6000602082840312156200060a57600080fd5b60006200061a84828501620005e0565b91505092915050565b6200062e8162000651565b82525050565b60006020820190506200064b600083018462000623565b92915050565b60006200065e8262000665565b9050919050565b600073ffffffffffffffffffffffffffffffffffffffff82169050919050565b620006908162000651565b81146200069c57600080fd5b50565b6133d180620006af6000396000f3fe608060405234801561001057600080fd5b50600436106101585760003560e01c80634f6ccce7116100c3578063a2c3743d1161007c578063a2c3743d1461040d578063ac9f02221461042b578063b88d4fde14610447578063c87b56dd14610463578063e985e9c514610493578063f2fde38b146104c357610158565b80634f6ccce71461031357806352594d7d146103435780636352211e1461037357806370a08231146103a35780638da5cb5b146103d3578063a22cb465146103f157610158565b80632f745c59116101155780632f745c591461022f57806338bbfa501461025f5780633e4cea291461027b57806340c10f19146102ab57806341d85ee5146102db57806342842e0e146102f757610158565b806301ffc9a71461015d578063081812fc1461018d578063095ea7b3146101bd57806318160ddd146101d957806323b872dd146101f757806327dc297e14610213575b600080fd5b61017760048036036101729190810190612a0e565b6104df565b6040516101849190612f83565b60405180910390f35b6101a760048036036101a29190810190612a9e565b610547565b6040516101b49190612f1c565b60405180910390f35b6101d760048036036101d291908101906128ad565b610584565b005b6101e161072c565b6040516101ee919061306b565b60405180910390f35b610211600480360361020c91908101906127a7565b610739565b005b61022d6004803603610228919081019061293b565b61075c565b005b610249600480360361024491908101906128ad565b61079f565b604051610256919061306b565b60405180910390f35b6102796004803603610274919081019061298f565b610812565b005b61029560048036036102909190810190612a60565b610817565b6040516102a29190612f83565b60405180910390f35b6102c560048036036102c091908101906128ad565b610b19565b6040516102d29190612f83565b60405180910390f35b6102f560048036036102f09190810190612ac7565b610b91565b005b610311600480360361030c91908101906127a7565b610e4d565b005b61032d60048036036103289190810190612a9e565b610e6d565b60405161033a919061306b565b60405180910390f35b61035d60048036036103589190810190612a60565b610ea1565b60405161036a9190612f1c565b60405180910390f35b61038d60048036036103889190810190612a9e565b611058565b60405161039a9190612f1c565b60405180910390f35b6103bd60048036036103b89190810190612742565b611095565b6040516103ca919061306b565b60405180910390f35b6103db6110e5565b6040516103e89190612f1c565b60405180910390f35b61040b60048036036104069190810190612871565b61110e565b005b610415611244565b604051610422919061306b565b60405180910390f35b610445600480360361044091908101906128e9565b61124a565b005b610461600480360361045c91908101906127f6565b6112c0565b005b61047d60048036036104789190810190612a9e565b6112e6565b60405161048a9190612f9e565b60405180910390f35b6104ad60048036036104a8919081019061276b565b6113ad565b6040516104ba9190612f83565b60405180910390f35b6104dd60048036036104d89190810190612742565b611441565b005b600060016000837bffffffffffffffffffffffffffffffffffffffffffffffffffffffff19167bffffffffffffffffffffffffffffffffffffffffffffffffffffffff1916815260200190815260200160002060009054906101000a900460ff169050919050565b60006003600083815260200190815260200160002060009054906101000a900473ffffffffffffffffffffffffffffffffffffffff169050919050565b6002600082815260200190815260200160002060009054906101000a900473ffffffffffffffffffffffffffffffffffffffff1673ffffffffffffffffffffffffffffffffffffffff168273ffffffffffffffffffffffffffffffffffffffff1614156105f057600080fd5b6000809054906101000a900473ffffffffffffffffffffffffffffffffffffffff1673ffffffffffffffffffffffffffffffffffffffff163373ffffffffffffffffffffffffffffffffffffffff16148061067257506106716000809054906101000a900473ffffffffffffffffffffffffffffffffffffffff16336113ad565b5b61067b57600080fd5b816003600083815260200190815260200160002060006101000a81548173ffffffffffffffffffffffffffffffffffffffff021916908373ffffffffffffffffffffffffffffffffffffffff160217905550808273ffffffffffffffffffffffffffffffffffffffff163373ffffffffffffffffffffffffffffffffffffffff167f8c5be1e5ebec7d5bd14f71427d1e84f3dd0314c0f7b2291e5b200ac8c7c3b92560405160405180910390a45050565b6000600880549050905090565b61074333826114dd565b61074c57600080fd5b610757838383611572565b505050565b61079b828260006040519080825280601f01601f1916602001820160405280156107955781602001600182028038833980820191505090505b50610812565b5050565b60006107aa83611095565b82106107b557600080fd5b600660008473ffffffffffffffffffffffffffffffffffffffff1673ffffffffffffffffffffffffffffffffffffffff16815260200190815260200160002082815481106107ff57fe5b9060005260206000200154905092915050565b505050565b60008083600001516000015184600001516020015185602001516000015160006002811061084157fe5b602002015186602001516000015160016002811061085b57fe5b602002015187602001516020015160006002811061087557fe5b602002015188602001516020015160016002811061088f57fe5b60200201518960400151600001518a60400151602001518a6000600181106108b357fe5b60200201516040516020016108d099989796959493929190612e79565b604051602081830303815290604052805190602001209050600073ffffffffffffffffffffffffffffffffffffffff166019600083815260200190815260200160002060010160009054906101000a900473ffffffffffffffffffffffffffffffffffffffff1673ffffffffffffffffffffffffffffffffffffffff161461098d576040517f08c379a000000000000000000000000000000000000000000000000000000000815260040161098490613020565b60405180910390fd5b6000601660009054906101000a900473ffffffffffffffffffffffffffffffffffffffff1673ffffffffffffffffffffffffffffffffffffffff1663f48d772986866040518363ffffffff1660e01b81526004016109ec929190613040565b60206040518083038186803b158015610a0457600080fd5b505afa158015610a18573d6000803e3d6000fd5b505050506040513d601f19601f82011682018060405250610a3c9190810190612912565b905080610a4e57600092505050610b13565b336019600084815260200190815260200160002060010160006101000a81548173ffffffffffffffffffffffffffffffffffffffff021916908373ffffffffffffffffffffffffffffffffffffffff16021790555060185460196000848152602001908152602001600020600001819055507f078793128cefb19aac38a33f9e5df39f67716907f6d747e8065545699e0b2b8d60185433604051610af3929190613086565b60405180910390a160016018600082825401925050819055506001925050505b92915050565b60008060009054906101000a900473ffffffffffffffffffffffffffffffffffffffff1673ffffffffffffffffffffffffffffffffffffffff163373ffffffffffffffffffffffffffffffffffffffff1614610b7457600080fd5b610b7e8383611596565b610b87826115b7565b6001905092915050565b6000826000015160000151836000015160200151846020015160000151600060028110610bba57fe5b6020020151856020015160000151600160028110610bd457fe5b6020020151866020015160200151600060028110610bee57fe5b6020020151876020015160200151600160028110610c0857fe5b602002015188604001516000015189604001516020015189600060018110610c2c57fe5b6020020151604051602001610c4999989796959493929190612e79565b604051602081830303815290604052805190602001209050600073ffffffffffffffffffffffffffffffffffffffff166019600083815260200190815260200160002060010160009054906101000a900473ffffffffffffffffffffffffffffffffffffffff1673ffffffffffffffffffffffffffffffffffffffff161415610d07576040517f08c379a0000000000000000000000000000000000000000000000000000000008152600401610cfe90612fc0565b60405180910390fd5b3373ffffffffffffffffffffffffffffffffffffffff166019600083815260200190815260200160002060010160009054906101000a900473ffffffffffffffffffffffffffffffffffffffff1673ffffffffffffffffffffffffffffffffffffffff1614610dab576040517f08c379a0000000000000000000000000000000000000000000000000000000008152600401610da290612fe0565b60405180910390fd5b600015156019600083815260200190815260200160002060010160149054906101000a900460ff16151514610e15576040517f08c379a0000000000000000000000000000000000000000000000000000000008152600401610e0c90613000565b60405180910390fd5b610e1f3385610b19565b50600115156019600083815260200190815260200160002060010160149054906101000a9050505050505050565b610e68838383604051806020016040528060008152506112c0565b505050565b6000610e7761072c565b8210610e8257600080fd5b60088281548110610e8f57fe5b90600052602060002001549050919050565b600080836000015160000151846000015160200151856020015160000151600060028110610ecb57fe5b6020020151866020015160000151600160028110610ee557fe5b6020020151876020015160200151600060028110610eff57fe5b6020020151886020015160200151600160028110610f1957fe5b60200201518960400151600001518a60400151602001518a600060018110610f3d57fe5b6020020151604051602001610f5a99989796959493929190612e79565b604051602081830303815290604052805190602001209050600073ffffffffffffffffffffffffffffffffffffffff166019600083815260200190815260200160002060010160009054906101000a900473ffffffffffffffffffffffffffffffffffffffff1673ffffffffffffffffffffffffffffffffffffffff161415611018576040517f08c379a000000000000000000000000000000000000000000000000000000000815260040161100f90612fc0565b60405180910390fd5b6019600082815260200190815260200160002060010160009054906101000a900473ffffffffffffffffffffffffffffffffffffffff1691505092915050565b60006002600083815260200190815260200160002060009054906101000a900473ffffffffffffffffffffffffffffffffffffffff169050919050565b60006110de600460008473ffffffffffffffffffffffffffffffffffffffff1673ffffffffffffffffffffffffffffffffffffffff16815260200190815260200160002061169f565b9050919050565b60008060009054906101000a900473ffffffffffffffffffffffffffffffffffffffff16905090565b3373ffffffffffffffffffffffffffffffffffffffff168273ffffffffffffffffffffffffffffffffffffffff16141561114757600080fd5b80600560003373ffffffffffffffffffffffffffffffffffffffff1673ffffffffffffffffffffffffffffffffffffffff16815260200190815260200160002060008473ffffffffffffffffffffffffffffffffffffffff1673ffffffffffffffffffffffffffffffffffffffff16815260200190815260200160002060006101000a81548160ff0219169083151502179055508173ffffffffffffffffffffffffffffffffffffffff163373ffffffffffffffffffffffffffffffffffffffff167f17307eab39ab6107e8899845ad3d59bd9653f200f220920489ca2b5937696c31836040516112389190612f83565b60405180910390a35050565b60185481565b6000809054906101000a900473ffffffffffffffffffffffffffffffffffffffff1673ffffffffffffffffffffffffffffffffffffffff163373ffffffffffffffffffffffffffffffffffffffff16146112a357600080fd5b80600060146101000a81548160ff02191690831515021790555050565b6112cb848484610739565b6112d7848484846116ad565b6112e057600080fd5b50505050565b60606112f1826117c4565b6112fa57600080fd5b601260008381526020019081526020016000208054600181600116156101000203166002900480601f0160208091040260200160405190810160405280929190818152602001828054600181600116156101000203166002900480156113a15780601f10611376576101008083540402835291602001916113a1565b820191906000526020600020905b81548152906001019060200180831161138457829003601f168201915b50505050509050919050565b6000600560008473ffffffffffffffffffffffffffffffffffffffff1673ffffffffffffffffffffffffffffffffffffffff16815260200190815260200160002060008373ffffffffffffffffffffffffffffffffffffffff1673ffffffffffffffffffffffffffffffffffffffff16815260200190815260200160002060009054906101000a900460ff16905092915050565b6000809054906101000a900473ffffffffffffffffffffffffffffffffffffffff1673ffffffffffffffffffffffffffffffffffffffff163373ffffffffffffffffffffffffffffffffffffffff161461149a57600080fd5b806000806101000a81548173ffffffffffffffffffffffffffffffffffffffff021916908373ffffffffffffffffffffffffffffffffffffffff16021790555050565b6000806114e983611058565b90508073ffffffffffffffffffffffffffffffffffffffff168473ffffffffffffffffffffffffffffffffffffffff16148061155857508373ffffffffffffffffffffffffffffffffffffffff1661154084610547565b73ffffffffffffffffffffffffffffffffffffffff16145b80611569575061156881856113ad565b5b91505092915050565b61157d838383611836565b6115878382611a14565b6115918282611bb2565b505050565b6115a08282611c79565b6115aa8282611bb2565b6115b381611dad565b5050565b6115c0816117c4565b6115c957600080fd5b61167560118054600181600116156101000203166002900480601f0160208091040260200160405190810160405280929190818152602001828054600181600116156101000203166002900480156116625780601f1061163757610100808354040283529160200191611662565b820191906000526020600020905b81548152906001019060200180831161164557829003601f168201915b505050505061167083611df9565b611f26565b60126000838152602001908152602001600020908051906020019061169b929190612355565b5050565b600081600001549050919050565b60006116ce8473ffffffffffffffffffffffffffffffffffffffff16611f6a565b6116db57600190506117bc565b60008473ffffffffffffffffffffffffffffffffffffffff1663150b7a02338887876040518563ffffffff1660e01b815260040161171c9493929190612f37565b602060405180830381600087803b15801561173657600080fd5b505af115801561174a573d6000803e3d6000fd5b505050506040513d601f19601f8201168201806040525061176e9190810190612a37565b905063150b7a0260e01b7bffffffffffffffffffffffffffffffffffffffffffffffffffffffff1916817bffffffffffffffffffffffffffffffffffffffffffffffffffffffff1916149150505b949350505050565b6000806002600084815260200190815260200160002060009054906101000a900473ffffffffffffffffffffffffffffffffffffffff169050600073ffffffffffffffffffffffffffffffffffffffff168173ffffffffffffffffffffffffffffffffffffffff161415915050919050565b8273ffffffffffffffffffffffffffffffffffffffff166002600083815260200190815260200160002060009054906101000a900473ffffffffffffffffffffffffffffffffffffffff1673ffffffffffffffffffffffffffffffffffffffff16146118a157600080fd5b6118c08273ffffffffffffffffffffffffffffffffffffffff16611f6a565b156118ca57600080fd5b6118d48282610584565b61191b600460008573ffffffffffffffffffffffffffffffffffffffff1673ffffffffffffffffffffffffffffffffffffffff168152602001908152602001600020611fb5565b611962600460008473ffffffffffffffffffffffffffffffffffffffff1673ffffffffffffffffffffffffffffffffffffffff168152602001908152602001600020611fd8565b816002600083815260200190815260200160002060006101000a81548173ffffffffffffffffffffffffffffffffffffffff021916908373ffffffffffffffffffffffffffffffffffffffff160217905550808273ffffffffffffffffffffffffffffffffffffffff168473ffffffffffffffffffffffffffffffffffffffff167fddf252ad1be2c89b69c2b068fc378daa952ba7f163c4a11628f55a4df523b3ef60405160405180910390a4505050565b6000611a6c6001600660008673ffffffffffffffffffffffffffffffffffffffff1673ffffffffffffffffffffffffffffffffffffffff16815260200190815260200160002080549050611fee90919063ffffffff16565b9050600060076000848152602001908152602001600020549050818114611b59576000600660008673ffffffffffffffffffffffffffffffffffffffff1673ffffffffffffffffffffffffffffffffffffffff1681526020019081526020016000208381548110611ad957fe5b9060005260206000200154905080600660008773ffffffffffffffffffffffffffffffffffffffff1673ffffffffffffffffffffffffffffffffffffffff1681526020019081526020016000208381548110611b3157fe5b9060005260206000200181905550816007600083815260200190815260200160002081905550505b600660008573ffffffffffffffffffffffffffffffffffffffff1673ffffffffffffffffffffffffffffffffffffffff168152602001908152602001600020805480919060019003611bab91906123d5565b5050505050565b600660008373ffffffffffffffffffffffffffffffffffffffff1673ffffffffffffffffffffffffffffffffffffffff168152602001908152602001600020805490506007600083815260200190815260200160002081905550600660008373ffffffffffffffffffffffffffffffffffffffff1673ffffffffffffffffffffffffffffffffffffffff1681526020019081526020016000208190806001815401808255809150509060018203906000526020600020016000909192909190915055505050565b611c82816117c4565b158015611cab5750611ca98273ffffffffffffffffffffffffffffffffffffffff16611f6a565b155b611cb457600080fd5b816002600083815260200190815260200160002060006101000a81548173ffffffffffffffffffffffffffffffffffffffff021916908373ffffffffffffffffffffffffffffffffffffffff160217905550611d4d600460008473ffffffffffffffffffffffffffffffffffffffff1673ffffffffffffffffffffffffffffffffffffffff168152602001908152602001600020611fd8565b808273ffffffffffffffffffffffffffffffffffffffff16600073ffffffffffffffffffffffffffffffffffffffff167fddf252ad1be2c89b69c2b068fc378daa952ba7f163c4a11628f55a4df523b3ef60405160405180910390a45050565b6008805490506009600083815260200190815260200160002081905550600881908060018154018082558091505090600182039060005260206000200160009091929091909150555050565b60606000821415611e41576040518060400160405280600181526020017f30000000000000000000000000000000000000000000000000000000000000008152509050611f21565b600082905060005b60008214611e6b578080600101915050600a8281611e6357fe5b049150611e49565b6060816040519080825280601f01601f191660200182016040528015611ea05781602001600182028038833980820191505090505b50905060006001830390505b60008614611f1957600a8681611ebe57fe5b0660300160f81b82828060019003935081518110611ed857fe5b60200101907effffffffffffffffffffffffffffffffffffffffffffffffffffffffffffff1916908160001a905350600a8681611f1157fe5b049550611eac565b819450505050505b919050565b6060611f628383604051806020016040528060008152506040518060200160405280600081525060405180602001604052806000815250612038565b905092915050565b60008060007fc5d2460186f7233c927e7db2dcc703c0e500b653ca82273b7bfad8045d85a47060001b9050833f9150808214158015611fac57506000801b8214155b92505050919050565b611fcd60018260000154611fee90919063ffffffff16565b816000018190555050565b6001816000016000828254019250508190555050565b600061203083836040518060400160405280601e81526020017f536166654d6174683a207375627472616374696f6e206f766572666c6f7700008152506122fa565b905092915050565b6060808690506060869050606086905060608690506060869050606081518351855187518951010101016040519080825280601f01601f1916602001820160405280156120945781602001600182028038833980820191505090505b509050606081905060008090506000809050600090505b8851811015612119578881815181106120c057fe5b602001015160f81c60f81b8383806001019450815181106120dd57fe5b60200101907effffffffffffffffffffffffffffffffffffffffffffffffffffffffffffff1916908160001a90535080806001019150506120ab565b600090505b875181101561218c5787818151811061213357fe5b602001015160f81c60f81b83838060010194508151811061215057fe5b60200101907effffffffffffffffffffffffffffffffffffffffffffffffffffffffffffff1916908160001a905350808060010191505061211e565b600090505b86518110156121ff578681815181106121a657fe5b602001015160f81c60f81b8383806001019450815181106121c357fe5b60200101907effffffffffffffffffffffffffffffffffffffffffffffffffffffffffffff1916908160001a9053508080600101915050612191565b600090505b85518110156122725785818151811061221957fe5b602001015160f81c60f81b83838060010194508151811061223657fe5b60200101907effffffffffffffffffffffffffffffffffffffffffffffffffffffffffffff1916908160001a9053508080600101915050612204565b600090505b84518110156122e55784818151811061228c57fe5b602001015160f81c60f81b8383806001019450815181106122a957fe5b60200101907effffffffffffffffffffffffffffffffffffffffffffffffffffffffffffff1916908160001a9053508080600101915050612277565b82995050505050505050505095945050505050565b6000838311158290612342576040517f08c379a00000000000000000000000000000000000000000000000000000000081526004016123399190612f9e565b60405180910390fd5b5060008385039050809150509392505050565b828054600181600116156101000203166002900490600052602060002090601f016020900481019282601f1061239657805160ff19168380011785556123c4565b828001600101855582156123c4579182015b828111156123c35782518255916020019190600101906123a8565b5b5090506123d19190612401565b5090565b8154818355818111156123fc578183600052602060002091820191016123fb9190612401565b5b505050565b61242391905b8082111561241f576000816000905550600101612407565b5090565b90565b6000813590506124358161331b565b92915050565b600082601f83011261244c57600080fd5b600161245f61245a826130dc565b6130af565b9150818385602084028201111561247557600080fd5b60005b838110156124a5578161248b888261272d565b845260208401935060208301925050600181019050612478565b5050505092915050565b600082601f8301126124c057600080fd5b60026124d36124ce826130fe565b6130af565b915081838560208402820111156124e957600080fd5b60005b8381101561251957816124ff888261272d565b8452602084019350602083019250506001810190506124ec565b5050505092915050565b60008135905061253281613332565b92915050565b60008151905061254781613332565b92915050565b60008135905061255c81613349565b92915050565b60008135905061257181613360565b92915050565b60008151905061258681613360565b92915050565b600082601f83011261259d57600080fd5b81356125b06125ab82613120565b6130af565b915080825260208301602083018583830111156125cc57600080fd5b6125d78382846132be565b50505092915050565b600082601f8301126125f157600080fd5b81356126046125ff8261314c565b6130af565b9150808252602083016020830185838301111561262057600080fd5b61262b8382846132be565b50505092915050565b60006040828403121561264657600080fd5b61265060406130af565b905060006126608482850161272d565b60008301525060206126748482850161272d565b60208301525092915050565b60006080828403121561269257600080fd5b61269c60406130af565b905060006126ac848285016124af565b60008301525060406126c0848285016124af565b60208301525092915050565b600061010082840312156126df57600080fd5b6126e960606130af565b905060006126f984828501612634565b600083015250604061270d84828501612680565b60208301525060c061272184828501612634565b60408301525092915050565b60008135905061273c81613377565b92915050565b60006020828403121561275457600080fd5b600061276284828501612426565b91505092915050565b6000806040838503121561277e57600080fd5b600061278c85828601612426565b925050602061279d85828601612426565b9150509250929050565b6000806000606084860312156127bc57600080fd5b60006127ca86828701612426565b93505060206127db86828701612426565b92505060406127ec8682870161272d565b9150509250925092565b6000806000806080858703121561280c57600080fd5b600061281a87828801612426565b945050602061282b87828801612426565b935050604061283c8782880161272d565b925050606085013567ffffffffffffffff81111561285957600080fd5b6128658782880161258c565b91505092959194509250565b6000806040838503121561288457600080fd5b600061289285828601612426565b92505060206128a385828601612523565b9150509250929050565b600080604083850312156128c057600080fd5b60006128ce85828601612426565b92505060206128df8582860161272d565b9150509250929050565b6000602082840312156128fb57600080fd5b600061290984828501612523565b91505092915050565b60006020828403121561292457600080fd5b600061293284828501612538565b91505092915050565b6000806040838503121561294e57600080fd5b600061295c8582860161254d565b925050602083013567ffffffffffffffff81111561297957600080fd5b612985858286016125e0565b9150509250929050565b6000806000606084860312156129a457600080fd5b60006129b28682870161254d565b935050602084013567ffffffffffffffff8111156129cf57600080fd5b6129db868287016125e0565b925050604084013567ffffffffffffffff8111156129f857600080fd5b612a048682870161258c565b9150509250925092565b600060208284031215612a2057600080fd5b6000612a2e84828501612562565b91505092915050565b600060208284031215612a4957600080fd5b6000612a5784828501612577565b91505092915050565b6000806101208385031215612a7457600080fd5b6000612a82858286016126cc565b925050610100612a948582860161243b565b9150509250929050565b600060208284031215612ab057600080fd5b6000612abe8482850161272d565b91505092915050565b60008060006101408486031215612add57600080fd5b6000612aeb8682870161272d565b9350506020612afc868287016126cc565b925050610120612b0e8682870161243b565b9150509250925092565b6000612b248383612e44565b60208301905092915050565b612b3981613288565b82525050565b612b488161320a565b82525050565b612b578161318c565b612b6181846131d2565b9250612b6c82613178565b8060005b83811015612b9d578151612b848782612b18565b9650612b8f836131b8565b925050600181019050612b70565b505050505050565b612bae81613197565b612bb881846131dd565b9250612bc382613182565b8060005b83811015612bf4578151612bdb8782612b18565b9650612be6836131c5565b925050600181019050612bc7565b505050505050565b612c058161321c565b82525050565b6000612c16826131a2565b612c2081856131e8565b9350612c308185602086016132cd565b612c398161330a565b840191505092915050565b6000612c4f826131ad565b612c5981856131f9565b9350612c698185602086016132cd565b612c728161330a565b840191505092915050565b6000612c8a6018836131f9565b91507f536f6c7574696f6e206e6565647320746f2065786973742100000000000000006000830152602082019050919050565b6000612cca603a836131f9565b91507f536f6c7574696f6e2070726f766964656420616e64204e4654206d696e74657260008301527f20617265206e6f74207468652073616d652061646472657373210000000000006020830152604082019050919050565b6000612d306011836131f9565b91507f536f6c7574696f6e2069732075736564210000000000000000000000000000006000830152602082019050919050565b6000612d706018836131f9565b91507f536f6c7574696f6e20616c7265616479206578697374732100000000000000006000830152602082019050919050565b604082016000820151612db96000850182612e44565b506020820151612dcc6020850182612e44565b50505050565b608082016000820151612de86000850182612ba5565b506020820151612dfb6040850182612ba5565b50505050565b61010082016000820151612e186000850182612da3565b506020820151612e2b6040850182612dd2565b506040820151612e3e60c0850182612da3565b50505050565b612e4d8161327e565b82525050565b612e5c8161327e565b82525050565b612e73612e6e8261327e565b613300565b82525050565b6000612e85828c612e62565b602082019150612e95828b612e62565b602082019150612ea5828a612e62565b602082019150612eb58289612e62565b602082019150612ec58288612e62565b602082019150612ed58287612e62565b602082019150612ee58286612e62565b602082019150612ef58285612e62565b602082019150612f058284612e62565b6020820191508190509a9950505050505050505050565b6000602082019050612f316000830184612b3f565b92915050565b6000608082019050612f4c6000830187612b30565b612f596020830186612b3f565b612f666040830185612e53565b8181036060830152612f788184612c0b565b905095945050505050565b6000602082019050612f986000830184612bfc565b92915050565b60006020820190508181036000830152612fb88184612c44565b905092915050565b60006020820190508181036000830152612fd981612c7d565b9050919050565b60006020820190508181036000830152612ff981612cbd565b9050919050565b6000602082019050818103600083015261301981612d23565b9050919050565b6000602082019050818103600083015261303981612d63565b9050919050565b6000610120820190506130566000830185612e01565b613064610100830184612b4e565b9392505050565b60006020820190506130806000830184612e53565b92915050565b600060408201905061309b6000830185612e53565b6130a86020830184612b30565b9392505050565b6000604051905081810181811067ffffffffffffffff821117156130d257600080fd5b8060405250919050565b600067ffffffffffffffff8211156130f357600080fd5b602082029050919050565b600067ffffffffffffffff82111561311557600080fd5b602082029050919050565b600067ffffffffffffffff82111561313757600080fd5b601f19601f8301169050602081019050919050565b600067ffffffffffffffff82111561316357600080fd5b601f19601f8301169050602081019050919050565b6000819050919050565b6000819050919050565b600060019050919050565b600060029050919050565b600081519050919050565b600081519050919050565b6000602082019050919050565b6000602082019050919050565b600081905092915050565b600081905092915050565b600082825260208201905092915050565b600082825260208201905092915050565b60006132158261325e565b9050919050565b60008115159050919050565b6000819050919050565b60007fffffffff0000000000000000000000000000000000000000000000000000000082169050919050565b600073ffffffffffffffffffffffffffffffffffffffff82169050919050565b6000819050919050565b60006132938261329a565b9050919050565b60006132a5826132ac565b9050919050565b60006132b78261325e565b9050919050565b82818337600083830152505050565b60005b838110156132eb5780820151818401526020810190506132d0565b838111156132fa576000848401525b50505050565b6000819050919050565b6000601f19601f8301169050919050565b6133248161320a565b811461332f57600080fd5b50565b61333b8161321c565b811461334657600080fd5b50565b61335281613228565b811461335d57600080fd5b50565b61336981613232565b811461337457600080fd5b50565b6133808161327e565b811461338b57600080fd5b5056fea365627a7a72315820ee957223efe427c127d32652ddb2a19fce6e738234d0bd92eda923b72048af8b6c6578706572696d656e74616cf564736f6c6343000510004068747470733a2f2f73332d75732d776573742d322e616d617a6f6e6177732e636f6d2f756461636974792d626c6f636b636861696e2f63617073746f6e652f",
  "source": "pragma solidity >=0.4.21 <0.6.0;\npragma experimental ABIEncoderV2;\n\nimport \"./ERC721Mintable.sol\";\nimport \"./verifier.sol\";\n// TODO define a contract call to the zokrates generated solidity contract <Verifier> or <renamedVerifier>\n// contract Verifier {\n//         function verifyTx(\n//             Proof memory proof, uint[1] memory input\n//         ) public view returns (bool r);\n// }\n\n\n// TODO define another contract named SolnSquareVerifier that inherits from your ERC721Mintable class\ncontract SolnSquareVerifier is ERC721MintableComplete {\n\n    Verifier private verifier;\n    constructor (address verifierAddress) ERC721MintableComplete() \n        public\n    {\n        verifier = Verifier(verifierAddress);\n    }\n    // TODO define a solutions struct that can hold an index & an address\n    struct Solution {\n        uint256 index;\n        address provider;\n        bool minted;\n    }\n\n    // TODO define an array of the above struct\n    Solution[] solutions;\n    uint256 public solutionCounter = 0;\n    // TODO define a mapping to store unique solutions submitted\n    mapping(bytes32 => Solution) solutions_mapping;\n\n\n    // TODO Create an event to emit when a solution is added\n    event SolutionAdded(uint256 index, address provider);\n\n\n    // TODO Create a function to add the solutions to the arr\n    function addSolution(Verifier.Proof memory proof, uint[1] memory input) public returns(bool){\n        bytes32 solutionHash = keccak256(abi.encodePacked(proof.a.X, proof.a.Y, proof.b.X[0], proof.b.X[1], proof.b.Y[0], proof.b.Y[1], proof.c.X, proof.c.Y, input[0]));\n        require(solutions_mapping[solutionHash].provider == address(0), \"Solution already exists!\");\n\n        bool verificationResult = verifier.verifyTx(proof, input);\n        if (!verificationResult){\n            return false;\n        } \n        else{\n            solutions_mapping[solutionHash].provider = msg.sender;\n            solutions_mapping[solutionHash].index = solutionCounter;\n            emit SolutionAdded(solutionCounter, msg.sender);\n            solutionCounter += 1;\n            return true;\n        }\n    }\n\n\n    // TODO Create a function to mint new NFT only after the solution has been verified\n    //  - make sure the solution is unique (has not been used before)\n    //  - make sure you handle metadata as well as tokenSuplly\n\n    function verifiedMint(uint256 index, Verifier.Proof memory proof, uint[1] memory input) public {\n        bytes32 solutionHash = keccak256(abi.encodePacked(proof.a.X, proof.a.Y, proof.b.X[0], proof.b.X[1], proof.b.Y[0], proof.b.Y[1], proof.c.X, proof.c.Y, input[0]));\n        require(solutions_mapping[solutionHash].provider != address(0), \"Solution needs to exist!\");\n        require(solutions_mapping[solutionHash].provider == msg.sender, \"Solution provided and NFT minter are not the same address!\");\n        require(solutions_mapping[solutionHash].minted == false, \"Solution is used!\");\n\n        super.mint(msg.sender, index);\n        solutions_mapping[solutionHash].minted == true;\n    }\n\n    function getSolutionProvider(Verifier.Proof memory proof, uint[1] memory input) view public returns(address){\n        bytes32 solutionHash = keccak256(abi.encodePacked(proof.a.X, proof.a.Y, proof.b.X[0], proof.b.X[1], proof.b.Y[0], proof.b.Y[1], proof.c.X, proof.c.Y, input[0]));\n        require(solutions_mapping[solutionHash].provider != address(0), \"Solution needs to exist!\");\n        return(solutions_mapping[solutionHash].provider);\n    }\n\n}\n\n\n\n  \n\n\n\n\n\n\n\n\n\n\n\n\n\n\n\n\n\n\n\n\n\n\n\n\n\n\n",
  "sourcePath": "/Users/bwuzhang/Projects/udacity_blockchain/Blockchain-Capstone/eth-contracts/contracts/SolnSquareVerifier.sol",
  "compiler": {
    "name": "solc",
    "version": "0.5.16+commit.9c3226ce.Emscripten.clang"
  },
  "schemaVersion": "3.4.9",
  "updatedAt": "2022-08-19T13:41:23.235Z",
  "networkType": "ethereum",
  "devdoc": {
    "methods": {
      "isApprovedForAll(address,address)": {
        "details": "Tells whether an operator is approved by a given owner",
        "params": {
          "operator": "operator address which you want to query the approval of",
          "owner": "owner address which you want to query the approval of"
        },
        "return": "bool whether the given operator is approved by the given owner"
      },
      "setApprovalForAll(address,bool)": {
        "details": "Sets or unsets the approval of a given operator An operator is allowed to transfer all tokens of the sender on their behalf",
        "params": {
          "approved": "representing the status of the approval to be set",
          "to": "operator address to set the approval"
        }
      },
      "supportsInterface(bytes4)": {
        "details": "implement supportsInterface(bytes4) using a lookup table"
      },
      "tokenByIndex(uint256)": {
        "details": "Gets the token ID at a given index of all the tokens in this contract Reverts if the index is greater or equal to the total number of tokens",
        "params": {
          "index": "uint256 representing the index to be accessed of the tokens list"
        },
        "return": "uint256 token ID at the given index of the tokens list"
      },
      "tokenOfOwnerByIndex(address,uint256)": {
        "details": "Gets the token ID at a given index of the tokens list of the requested owner",
        "params": {
          "index": "uint256 representing the index to be accessed of the requested tokens list",
          "owner": "address owning the tokens list to be accessed"
        },
        "return": "uint256 token ID at the given index of the tokens list owned by the requested address"
      },
      "totalSupply()": {
        "details": "Gets the total amount of tokens stored by the contract",
        "return": "uint256 representing the total amount of tokens"
      }
    }
  },
  "userdoc": {
    "methods": {}
  }
}